{
    "contractName": "blockCart",
    "abi": [
        {
            "inputs": [
                {
                    "internalType": "address",
                    "name": "_owner",
                    "type": "address"
                }
            ],
            "name": "getItemsByOwner",
            "outputs": [
                {
                    "internalType": "uint256[]",
                    "name": "",
                    "type": "uint256[]"
                }
            ],
            "stateMutability": "view",
            "type": "function"
        },
        {
            "inputs": [],
            "name": "itemCount",
            "outputs": [
                {
                    "internalType": "uint256",
                    "name": "",
                    "type": "uint256"
                }
            ],
            "stateMutability": "view",
            "type": "function"
        },
        {
            "inputs": [
                {
                    "internalType": "uint256",
                    "name": "",
                    "type": "uint256"
                }
            ],
            "name": "items",
            "outputs": [
                {
                    "internalType": "uint256",
                    "name": "id",
                    "type": "uint256"
                },
                {
                    "internalType": "string",
                    "name": "name",
                    "type": "string"
                },
                {
                    "internalType": "uint256",
                    "name": "price",
                    "type": "uint256"
                },
                {
                    "internalType": "address payable",
                    "name": "seller",
                    "type": "address"
                },
                {
                    "internalType": "address",
                    "name": "owner",
                    "type": "address"
                },
                {
                    "internalType": "bool",
                    "name": "isSold",
                    "type": "bool"
                }
            ],
            "stateMutability": "view",
            "type": "function"
        },
        {
            "inputs": [
                {
                    "internalType": "string",
                    "name": "_name",
                    "type": "string"
                },
                {
                    "internalType": "uint256",
                    "name": "_price",
                    "type": "uint256"
                }
            ],
            "name": "listItem",
            "outputs": [],
            "stateMutability": "nonpayable",
            "type": "function"
        },
        {
            "inputs": [
                {
                    "internalType": "address",
                    "name": "",
                    "type": "address"
                },
                {
                    "internalType": "uint256",
                    "name": "",
                    "type": "uint256"
                }
            ],
            "name": "ownedItems",
            "outputs": [
                {
                    "internalType": "uint256",
                    "name": "",
                    "type": "uint256"
                }
            ],
            "stateMutability": "view",
            "type": "function"
        },
        {
            "inputs": [
                {
                    "internalType": "uint256",
                    "name": "_id",
                    "type": "uint256"
                }
            ],
            "name": "purchaseItem",
            "outputs": [],
            "stateMutability": "payable",
            "type": "function"
        },
        {
            "inputs": [
                {
                    "internalType": "uint256",
                    "name": "_id",
                    "type": "uint256"
                },
                {
                    "internalType": "address",
                    "name": "_to",
                    "type": "address"
                }
            ],
            "name": "transferItem",
            "outputs": [],
            "stateMutability": "nonpayable",
            "type": "function"
        }
    ],
    "bytecode": "60808060405234610019575f8055610abf908161001e8239f35b5f80fdfe60806040818152600480361015610014575f80fd5b5f9260e08435811c9182632c67a8e51461079657508163428465341461073c5781636bfb0d011461071e5781638511c93714610450578163a42291011461035f578163bfb231d214610203575063d38ea5bf1461006f575f80fd5b602090816003193601126101ff57803590818552600183528385209282156101cf576002840154340361019b5781840180549460ff8660a01c16610164576003019460018060a01b0393848754169384331461011857505060ff60a01b1916600160a01b17905585908190819081908190341561010e575b3491f115610101576100fe93503392541690610955565b80f35b50505051903d90823e3d90fd5b6108fc91506100e7565b885162461bcd60e51b815291820152602160248201527f53656c6c65722063616e6e6f7420627579207468656972206f776e206974656d6044820152607360f81b606482015260849150fd5b865162461bcd60e51b81528085018490526011602482015270125d195b48185b1c9958591e481cdbdb19607a1b6044820152606490fd5b845162461bcd60e51b815291820152600f60248201526e496e636f727265637420707269636560881b604482015260649150fd5b845162461bcd60e51b815291820152600b60248201526a496e76616c69642049442160a81b604482015260649150fd5b8380fd5b918491503461035b5760209081600319360112610357578035835260019283835285812090815496858301815180978490835493610240856108b9565b948585528a83821691825f146103355750506001146102f8575b5050610270925099969593999492940387610883565b600281015460018060a01b039283600384015416920154938051998a97885260c0878901528851968760c08a015281995b888b106102de575050879850898760ff989901015287015260608601528116608085015260a01c16151560a0830152601f80199101168101030190f35b8a8101820151998b018c0199909952988901988b986102a1565b89925086528186209086915b85831061031c57505061027093508201018b8061025a565b8194848483969596549201015201910189928992610304565b925093505061027094915060ff191682840152151560051b8201018b8061025a565b8280fd5b5080fd5b8385843461035b578260031936011261035b57602435908035906001600160a01b03808416840361044c57828552600160205285852083151580610441575b15610408578201541633036103ba5750906100fe913390610955565b608490602086519162461bcd60e51b8352820152602260248201527f796f7520617265206e6f7420746865206f776e6572206f662074686973206974604482015261656d60f01b6064820152fd5b865162461bcd60e51b81526020818501526013602482015272125d195b48191bd95cc81b9bdd08195e1a5cdd606a1b6044820152606490fd5b50855484111561039e565b8480fd5b50503461035757816003193601126103575780359067ffffffffffffffff9081831161044c573660238401121561044c57828101359180831161070b57845191866020956104a787601f19601f8901160186610883565b85855260249536878284010111610357578087899301838801378501015283359283156106c9576104d888546108f1565b9384895587519160c08301838110868211176106b75789528583528783019081528883019182526060830194338652608084019733895260a08501978c89528c52600190818b528b8d209551865581860193519081519384116106a657508c8b61054286546108b9565b91601f831161065e575b915050508a908d601f85116001146105ef579360029b9997959381936100fe9f9e9c9a989693836105e4575b50501b915f199060031b1c19161790555b518188015591516003830180546001600160a01b0319166001600160a01b0392831617905593519101805492516001600160a81b0319909316919093161790151560a01b60ff60a01b16179055338552528220825490610913565b015192505f80610578565b9190601f9493941984168684528d8420935b8181106106495750916100fe9e9d9b99979593918560029e9c9a98969410610631575b505050811b019055610589565b01515f1960f88460031b161c191690555f8080610624565b82840151855593860193928e01928e01610601565b86815220601f850160051c8101918d861061069c575b601f0160051c019083908f5b8382106106915790508d915061054c565b81550183908f610680565b9091508190610674565b634e487b7160e01b8e52604188528dfd5b634e487b7160e01b8b5260418552878bfd5b865162461bcd60e51b8152808301879052601d818701527f5072696365206d7573742062652067726561746572207468616e2030210000006044820152606490fd5b634e487b7160e01b865260418252602486fd5b5050503461035b578160031936011261035b57602091549051908152f35b5050503461035b578060031936011261035b57610757610840565b6001600160a01b0316825260026020528082208054602435939084101561079357506020926107859161085a565b91905490519160031b1c8152f35b80fd5b8585913461035b576020806003193601126103575792916001600160a01b036107bd610840565b16815260028452828120918254808252858201908194845286842090845b81811061082c57505050816107f1910382610883565b83519485948186019282875251809352850193925b82811061081557505050500390f35b835185528695509381019392810192600101610806565b8254845292880192600192830192016107db565b600435906001600160a01b038216820361085657565b5f80fd5b805482101561086f575f5260205f2001905f90565b634e487b7160e01b5f52603260045260245ffd5b90601f8019910116810190811067ffffffffffffffff8211176108a557604052565b634e487b7160e01b5f52604160045260245ffd5b90600182811c921680156108e7575b60208310146108d357565b634e487b7160e01b5f52602260045260245ffd5b91607f16916108c8565b5f1981146108ff5760010190565b634e487b7160e01b5f52601160045260245ffd5b90815491680100000000000000008310156108a5578261093b9160016109539501815561085a565b90919082549060031b91821b915f19901b1916179055565b565b9092915f908282526001806020526004918260408520019660018060a01b0380921697886bffffffffffffffffffffffff60a01b8254161790551683526002602052604083208184905b6109bd575b5050505080610953939460409252600260205220610913565b815480821015610a835786906109d3838561085a565b929054600393841b1c146109f25750506109ec906108f1565b8261099f565b9498949093505f199190828101908111610a70579061093b610a17610a24938661085a565b905490871b1c918561085a565b81548015610a5d576109539798509080604096959493920192610a47848461085a565b81939154921b1b1916905555949381925f6109a4565b634e487b7160e01b865260318952602486fd5b634e487b7160e01b875260118a52602487fd5b506109a456fea2646970667358221220e38164659f865f1a0a791aced8b7ceab2cbeef50301e6b004e3d27cfbc0c06f164736f6c63430008140033",
    "sourcePath": "/Applications/blockchain_project/blockcart.sol",
    "compiler": {
        "name": "solc",
        "version": "0.8.20+commit.a1b79de6"
    },
    "functionHashes": {
        "getItemsByOwner(address)": "2c67a8e5",
        "itemCount()": "6bfb0d01",
        "items(uint256)": "bfb231d2",
        "listItem(string,uint256)": "8511c937",
        "ownedItems(address,uint256)": "42846534",
        "purchaseItem(uint256)": "d38ea5bf",
        "transferItem(uint256,address)": "a4229101"
    },
    "gasEstimates": {
        "creation": {
            "codeDepositCost": "550200",
            "executionCost": "5593",
            "totalCost": "555793"
        },
        "external": {
            "getItemsByOwner(address)": "infinite",
            "itemCount()": "2322",
            "items(uint256)": "infinite",
            "listItem(string,uint256)": "infinite",
            "ownedItems(address,uint256)": "6817",
            "purchaseItem(uint256)": "infinite",
            "transferItem(uint256,address)": "infinite"
        },
        "internal": {
            "_transferOwnership(uint256,address,address)": "infinite"
        }
    }
}